:1000000013C100002CC100002AC1000028C100005B
:1000100026C1000024C1000022C1000020C1000050
:100020001EC100001CC1000060C5000018C1000016
:1000300016C1000014C1000012C1000010C1000070
:100040000EC100000CC100000AC1000008C1000080
:1000500006C1000004C1000002C1000000C1000090
:10006000FEC00000FCC00000FAC00000F8C00000A4
:10007000F6C00000F4C00000F2C00000F0C00000B4
:10008000EEC00000ECC00000EAC00000E8C00000C4
:10009000E6C00000E4C00000E2C00000E0C00000D4
:1000A000DEC00000DCC00000DAC000001201000267
:1000B000FFFFFF405E048E021401010203010902EA
:1000C0009900040100A0FA0904000002FF5D01008C
:1000D0001121000101258114000000001301080016
:1000E000000705810320000107050103200008091E
:1000F00004010004FF5D03001B2100010101824097
:10010000010220168300000000000016030000001A
:1001100000000007058203200002070502032000FB
:10012000040705830320004007050303200010098E
:1001300004020001FF5D0200092100010122840781
:1001400000070584032000100904030000FFFD13CD
:1001500004064100010103040309041A0363007249
:10016000007400670061006D006500720073002E6E
:100170000063006C000000A4034300520054002000
:1001800000470041004D0045005200530020002D63
:1001900000200030002000440065006C0061007900
:1001A00000200055005300420020004A006F0079F3
:1001B0000073007400690063006B0020005000723F
:1001C000006F00660065007300730069006F006EC9
:1001D0000061006C00200050006C0075007300206E
:1001E0000050006C007500730020003200300030B9
:1001F000003200200055004D0020004300680061DF
:10020000006D00700069006F006E00200045006402
:10021000006900740069006F006E0000000803367A
:10022000002E00390000000011241FBECFEFDAE0DD
:10023000DEBFCDBF11E0A0E0B1E0E4EAFFE002C024
:1002400005900D92A230B107D9F711E0A2E0B1E01C
:1002500001C01D92A732B107E1F733D0A1C6D0CEBD
:1002600087988F9A86988E9A85988D9A84988C9A7A
:100270008198899A8098889A23982B9A2198299A0C
:1002800056985E9A27982F9A26982E9A25982D9AF6
:1002900024982C9A6E98769A57985F9A3E98469A28
:1002A00054985C9A5098589A5198599A52985A9AD8
:1002B00053985B9A2098289A22982A9A3F98479AAE
:1002C00008958F929F92BF92CF92DF92EF92FF920A
:1002D0000F931F93CF93DF9380E880936100109278
:1002E000610085B7806885BF85B7806885BFB8DF46
:1002F00081E063D1C1E0D0E09FEF892E9EEF992E7F
:100300008FEFC82ED12C4CD189B169B179B1E6B14A
:10031000F9B003B11CB1B3B1E3B0B3B039B13695A4
:10032000369536953C27317029B1269526952C2790
:100330002170FFB1AFB143B153B17C9902C090E0DD
:1003400005C07D9902C09FEF01C09FE781FD04C0F9
:1003500080910801816003C0809108018E7F8093A5
:10036000080160FD04C080910801826003C0809193
:1003700008018D7F8093080174FD04C080910801FD
:10038000846003C0809108018B7F80930801E6FDA3
:1003900004C080910801886003C080910801877FB4
:1003A00080930801332321F080910801806103C00C
:1003B000809108018F7E80930801222321F0809193
:1003C0000801806203C0809108018F7D809308013D
:1003D000F6FD04C080910801806403C0809108018B
:1003E0008F7B80930801A7FD04C08091080180687D
:1003F00003C0809108018F7780930801B5FD04C088
:1004000080910901806103C0809109018F7E8093F2
:10041000090116FD04C080910901806203C080912A
:1004200009018F7D8093090104FD04C080910901B9
:10043000806403C0809109018F7B80930901F7FCE0
:1004400004C080910901806803C0809109018F7701
:1004500080930901E2FC04C080910901816003C01E
:10046000809109018E7F80930901B6FC04C08091C0
:100470000901826003C0809109018D7F8093090189
:10048000332331F0222321F080910901846003C0DD
:10049000809109018B7F80930901892F90E09C0155
:1004A000289DC001299D900D389D900D11248150EB
:1004B000904890931301809312014695842F90E009
:1004C0008C279D27817090709C012C9DC0012D9DD3
:1004D000900D3C9D900D112480930A0156955695E0
:1004E0005695852F90E08C279D27817090709C01F8
:1004F0002C9DC0012D9D900D3C9D900D112480934D
:100500000B018DD000CFDA01292F3327223031059E
:1005100059F02330310569F02130310549F5ECEA15
:10052000F0E022E130E028C0EEEBF0E029E930E035
:1005300023C090708130910569F08130910530F0D1
:100540008230910559F0039799F40CC0E7E5F1E08A
:1005500084910BC0EBE5F1E0849107C0E7E7F1E09F
:10056000849103C0EDE1F2E08491282F30E004C0D3
:10057000E0E0F0E020E030E0ED93FC93C901089565
:10058000E0910201F0910301309709F00995089577
:10059000E0910401F0910501309709F00995089563
:1005A000A895089584E1E6E0F1E0DF01982F1D921F
:1005B0009A95E9F7809307010895882361F02FE069
:1005C00088E190E00FB6F894A895809360000FBE84
:1005D0002093600008C088E10FB6F8948093600013
:1005E000109260000FBEDEDF63D278940895809190
:1005F0001E01843099F481E08093E9008091E80045
:1006000080FF0CC086E091E064E170E040E050E0E3
:1006100008D18091E8008E778093E8000895E7DFA5
:10062000AAC480912001813099F480911F01813A00
:1006300079F48091E800877F8093E80086E091E07C
:1006400064E170E00ED08091E8008B778093E80041
:10065000089581E061EC42E236D183E061EC42E250
:1006600032C1E82F409125015091260146175707C6
:1006700050F42E2F392FC901DC0180910001E82FA1
:10068000F0E090E043C06115710511F0AB01F1CFCE
:100690008091E8008E778093E80040E050E0E9CF59
:1006A00080911E01882309F447C0853009F446C0B3
:1006B0008091E80083FD44C08091E80082FD36C04F
:1006C0008091E80080FF22C08091F3009091F200B9
:1006D000782F60E0292F30E0262B372B07C08D9133
:1006E0008093F100415050402F5F3F4F411551051D
:1006F00019F02E173F0798F390E02E173F0709F4E3
:1007000091E08091E8008E778093E80041155105D3
:1007100039F6992329F60AC080911E01882361F0D9
:10072000853061F08091E80083FD0AC08091E80087
:1007300082FFF2CF80E0089582E0089583E008957B
:1007400081E008959C0140912501509126014617B2
:10075000570738F4F90180910001A82FB0E090E02C
:1007600044C06115710511F0AB01F4CF8091E80030
:100770008E778093E80040E050E0ECCF80911E013E
:10078000882309F448C0853009F447C08091E80007
:1007900083FD45C08091E80082FD37C08091E8006C
:1007A00080FF23C08091F3009091F200782F60E0E9
:1007B000292F30E0262B372B08C084918093F1003D
:1007C0003196415050402F5F3F4F4115510519F070
:1007D0002A173B0790F390E02A173B0709F491E0B2
:1007E0008091E8008E778093E8004115510531F63D
:1007F000992321F60AC080911E01882361F085307B
:1008000061F08091E80083FD0AC08091E80082FFDA
:10081000F2CF80E0089582E0089583E0089581E0BA
:100820000895BF92CF92DF92EF92FF920F931F93A2
:10083000CF93DF93182F092F7B016A019DD0B82E2B
:100840008823B1F5812F902F9C01E901C114D104B7
:1008500039F0F60180819181E81AF90AC80FD91F91
:1008600000E010E022C08091E80085FD16C0809174
:10087000E8008E778093E8007ED3C114D10449F05C
:10088000F60180819181800F911F9183808385E0A3
:1008900010C072D0882349F00CC089918093F10078
:1008A0000894E108F1080F5F1F4FE114F104D9F635
:1008B0008B2DDF91CF911F910F91FF90EF90DF90E3
:1008C000CF90BF900895382F282F2EC0822F8F7081
:1008D0008093E900231721F4762F942F50E006C06F
:1008E0007091EC009091ED005091F00091FF1BC0D1
:1008F0008091EB008E7F8093EB008091ED008D7FE7
:100900008093ED008091EB0081608093EB00709309
:10091000EC009093ED005093F0008091EE0087FD85
:1009200002C080E008952F5F273080F23F7030933F
:10093000E90081E0089580911F0188239CF404C0A0
:1009400080911E018823B9F08091E80082FFF8CFE2
:100950008091E8008B778093E800089580911E01D4
:10096000882349F08091E80080FFF8CF8091E8006B
:100970008E778093E80008954091E4005091E5005F
:1009800024E68091EC0080FF24C08091E80080FD87
:100990001EC080911E01882311F482E008958530E5
:1009A00011F483E008958091EB0085FF02C081E09F
:1009B00008958091E4009091E5008417950709F36C
:1009C000222311F484E008952150AC01DACF80E0B5
:1009D00008958091E80082FFDCCFF9CFDF93CF93B9
:1009E00000D0CDB7DEB774D07BD08091D8008F77A0
:1009F0008093D8008091D80080688093D80080913F
:100A0000D8008F7D8093D80019BC10921E011092DF
:100A10001A0110921C0110921B0180E091E060E02D
:100A200070E0AE014F5F5F4F6EDD892B31F0E981E1
:100A3000FA813796E491E09300018091E0008B7F8A
:100A40008093E0008091D80081608093D8008091ED
:100A5000000190E028E030E040E003C04F5F220F4B
:100A6000331F28173907D0F34295407F426080E05A
:100A700060E029DF8091E1008E7F8093E10080912A
:100A8000E20081608093E2008091E20088608093C0
:100A9000E2008091E0008E7F8093E0008091D8009A
:100AA00080618093D8000F900F90CF91DF910895CF
:100AB000E8EDF0E080818F7E8083E7EDF0E08081DB
:100AC0008160808384E082BF81E080931D0186CFB6
:100AD000E8EDF0E080818E7F80831092E20008953F
:100AE0001092DA001092E10008951F920F920FB653
:100AF0000F9211242F933F934F935F936F937F93A4
:100B00008F939F93AF93BF93EF93FF938091E100F7
:100B100082FF0AC08091E20082FF06C08091E1005E
:100B20008B7F8093E10026D28091DA0080FF1DC088
:100B30008091D80080FF19C08091DA008E7F809369
:100B4000DA008091D90080FF0CC080E189BD82E18C
:100B500089BD09B400FEFDCF81E080931E0110DD48
:100B600004C019BC10921E0113DD8091E10080FFCA
:100B700018C08091E20080FF14C08091E2008E7F57
:100B80008093E2008091E20080618093E200809196
:100B9000D80080628093D80019BC85E080931E0144
:100BA000E9D18091E10084FF2FC08091E20084FFB1
:100BB0002BC080E189BD82E189BD09B400FEFDCF73
:100BC0008091D8008F7D8093D8008091E1008F7E46
:100BD0008093E1008091E2008F7E8093E20080911B
:100BE000E20081608093E20080911A01882311F075
:100BF00084E007C08091E30087FD02C081E001C06E
:100C000083E080931E01B6D18091E10083FF31C063
:100C10008091E20083FF2DC08091E100877F809367
:100C2000E10082E080931E0110921A018091E100A0
:100C30008E7F8093E1008091E2008E7F8093E200BE
:100C40008091E20080618093E2008091000190E059
:100C500040E028E030E003C04F5F220F331F281729
:100C60003907D0F34295407F426080E060E02BDEA0
:100C700081D1FF91EF91BF91AF919F918F917F9122
:100C80006F915F914F913F912F910F900FBE0F90F9
:100C90001F9018951F93DF93CF93CDB7DEB7AC9716
:100CA0000FB6F894DEBF0FBECDBFEFE1F1E080914B
:100CB000F100819321E0E732F207C9F7B2DC8091BD
:100CC000E80083FF3FC180911F0130912001353042
:100CD00009F48DC0363040F43130E1F1313070F03C
:100CE000333009F02FC136C0383009F4FDC0393037
:100CF00009F40CC1363009F025C19CC0803821F0C0
:100D0000823809F01FC108C090911B0180911C011D
:100D10008823B1F0926014C0809123018F708730D6
:100D200008F010C18093E9008091EB0090E025E08D
:100D3000969587952A95E1F7982F91701092E90082
:100D40008091E800877F8093E8009093F1001092F3
:100D5000F100D5C0882319F0823009F0F3C090E08B
:100D60008F719070009721F0029709F0EBC00CC0D2
:100D700080912101813009F0E5C010921C013330CF
:100D800081F580931C012DC080912101882349F5B4
:100D9000209123012F70822F8150863008F0D2C01D
:100DA0002093E9008091EB0080FF1BC0333021F4D9
:100DB0008091EB00806213C08091EB008061809392
:100DC000EB0081E090E002C0880F991F2A95E2F7BE
:100DD0008093EA001092EA008091EB008860809393
:100DE000EB001092E9008091E800877F8BC0882398
:100DF00009F0A8C0109121011F778091E30080784D
:100E0000812B8093E3008091E800877F8093E80046
:100E100092DD8091E80080FFFCCF8091E300806844
:100E20008093E300112311F482E001C083E08093FA
:100E30001E0188C08058823008F084C08091210152
:100E40009091220123E08C3D920709F033C083E0AA
:100E50008C838AE28B837FB7F894DE0115966EE06F
:100E600040E050E011E2E62FF0E01093570084914B
:100E700040FF03C082958F706F5F8F70282F30E026
:100E80008A3018F0C901C79602C0C901C0968D9377
:100E90009D934F5F5F4F4431510529F77FBF80918C
:100EA000E800877F8093E800CE0103966AE270E055
:100EB000D8DB14C06091230170912401AE014F5F13
:100EC0005F4F21DBBC01009709F43CC08091E80032
:100ED000877F8093E80089819A8134DC8091E800E3
:100EE0008B778093E8002EC0803861F58091E80010
:100EF000877F8093E80080911A018093F1008091B0
:100F0000E8008E778093E80016DD1CC08823D1F4BA
:100F1000909121019230B0F48091E800877F809316
:100F2000E80090931A0107DD80911A01882331F4BB
:100F30008091E30087FD02C081E001C084E08093DE
:100F40001E0187DB8091E80083FF0AC08091E800E2
:100F5000877F8093E8008091EB0080628093EB00B4
:100F6000AC960FB6F894DEBF0FBECDBFCF91DF9128
:100F70001F91089508951F9380911E01882371F099
:100F80001091E9008091EC001092E9008091E80056
:100F900083FF01C07FDE1F701093E9001F91089549
:040FA000F894FFCFF3
:020FA400080043
:00000001FF
